{"abi":[{"type":"constructor","inputs":[{"name":"_usdc","type":"address","internalType":"address"},{"name":"permit2Tokens","type":"address[]","internalType":"address[]"}],"stateMutability":"nonpayable"},{"type":"receive","stateMutability":"payable"},{"type":"function","name":"PERMIT2","inputs":[],"outputs":[{"name":"","type":"address","internalType":"address"}],"stateMutability":"view"},{"type":"function","name":"USDC","inputs":[],"outputs":[{"name":"","type":"address","internalType":"address"}],"stateMutability":"view"},{"type":"function","name":"dailyVolume","inputs":[{"name":"","type":"uint256","internalType":"uint256"}],"outputs":[{"name":"","type":"uint256","internalType":"uint256"}],"stateMutability":"view"},{"type":"function","name":"deposit","inputs":[],"outputs":[],"stateMutability":"payable"},{"type":"function","name":"executeSwap","inputs":[{"name":"tokenIn","type":"address","internalType":"address"},{"name":"tokenOut","type":"address","internalType":"address"},{"name":"amountIn","type":"uint256","internalType":"uint256"},{"name":"minAmountOut","type":"uint256","internalType":"uint256"},{"name":"uniswapCalldata","type":"bytes","internalType":"bytes"},{"name":"uniswapRouter","type":"address","internalType":"address"}],"outputs":[],"stateMutability":"nonpayable"},{"type":"function","name":"getCurrentDay","inputs":[],"outputs":[{"name":"","type":"uint256","internalType":"uint256"}],"stateMutability":"view"},{"type":"function","name":"getMandate","inputs":[],"outputs":[{"name":"","type":"tuple","internalType":"struct AgentMandate.MandateData","components":[{"name":"agent","type":"address","internalType":"address"},{"name":"allowedTokens","type":"address[]","internalType":"address[]"},{"name":"maxAmountPerSwap","type":"uint256","internalType":"uint256"},{"name":"maxDailyVolumeUSDC","type":"uint256","internalType":"uint256"},{"name":"maxSlippageBps","type":"uint256","internalType":"uint256"},{"name":"active","type":"bool","internalType":"bool"}]}],"stateMutability":"view"},{"type":"function","name":"owner","inputs":[],"outputs":[{"name":"","type":"address","internalType":"address"}],"stateMutability":"view"},{"type":"function","name":"pauseMandate","inputs":[],"outputs":[],"stateMutability":"nonpayable"},{"type":"function","name":"resumeMandate","inputs":[],"outputs":[],"stateMutability":"nonpayable"},{"type":"function","name":"setMandate","inputs":[{"name":"mandate","type":"tuple","internalType":"struct AgentMandate.MandateData","components":[{"name":"agent","type":"address","internalType":"address"},{"name":"allowedTokens","type":"address[]","internalType":"address[]"},{"name":"maxAmountPerSwap","type":"uint256","internalType":"uint256"},{"name":"maxDailyVolumeUSDC","type":"uint256","internalType":"uint256"},{"name":"maxSlippageBps","type":"uint256","internalType":"uint256"},{"name":"active","type":"bool","internalType":"bool"}]}],"outputs":[],"stateMutability":"nonpayable"},{"type":"function","name":"transferOwnership","inputs":[{"name":"newOwner","type":"address","internalType":"address"}],"outputs":[],"stateMutability":"nonpayable"},{"type":"function","name":"withdraw","inputs":[{"name":"token","type":"address","internalType":"address"},{"name":"amount","type":"uint256","internalType":"uint256"}],"outputs":[],"stateMutability":"nonpayable"},{"type":"event","name":"MandateUpdated","inputs":[{"name":"agent","type":"address","indexed":true,"internalType":"address"}],"anonymous":false},{"type":"event","name":"SwapExecuted","inputs":[{"name":"tokenIn","type":"address","indexed":true,"internalType":"address"},{"name":"tokenOut","type":"address","indexed":true,"internalType":"address"},{"name":"amountIn","type":"uint256","indexed":false,"internalType":"uint256"},{"name":"amountOut","type":"uint256","indexed":false,"internalType":"uint256"},{"name":"executor","type":"address","indexed":true,"internalType":"address"}],"anonymous":false},{"type":"error","name":"ExceedsDailyLimit","inputs":[{"name":"newTotal","type":"uint256","internalType":"uint256"},{"name":"limit","type":"uint256","internalType":"uint256"}]},{"type":"error","name":"ExceedsPerSwapLimit","inputs":[{"name":"amount","type":"uint256","internalType":"uint256"},{"name":"limit","type":"uint256","internalType":"uint256"}]},{"type":"error","name":"InsufficientOutput","inputs":[]},{"type":"error","name":"MandateInactive","inputs":[]},{"type":"error","name":"NotAgent","inputs":[]},{"type":"error","name":"NotOwner","inputs":[]},{"type":"error","name":"SafeERC20FailedOperation","inputs":[{"name":"token","type":"address","internalType":"address"}]},{"type":"error","name":"SwapCallFailed","inputs":[]},{"type":"error","name":"TokenNotAllowed","inputs":[{"name":"token","type":"address","internalType":"address"}]}],"bytecode":{"object":"0x60a060405234801562000010575f80fd5b506040516200220238038062002202833981810160405281019062000036919062000458565b335f806101000a81548173ffffffffffffffffffffffffffffffffffffffff021916908373ffffffffffffffffffffffffffffffffffffffff1602179055508173ffffffffffffffffffffffffffffffffffffffff1660808173ffffffffffffffffffffffffffffffffffffffff16815250505f5b81518110156200013c576200012e6e22d473030f116ddee9f6b43ac78ba37fffffffffffffffffffffffffffffffffffffffffffffffffffffffffffffffff8484815181106200010057620000ff620004bc565b5b602002602001015173ffffffffffffffffffffffffffffffffffffffff166200014560201b9092919060201c565b8080600101915050620000ab565b50505062000515565b620001598383835f6200021660201b60201c565b62000211576200017383835f60016200021660201b60201c565b620001b757826040517f5274afe7000000000000000000000000000000000000000000000000000000008152600401620001ae9190620004fa565b60405180910390fd5b620001cc83838360016200021660201b60201c565b6200021057826040517f5274afe7000000000000000000000000000000000000000000000000000000008152600401620002079190620004fa565b60405180910390fd5b5b505050565b5f8063095ea7b360e01b9050604051815f525f1960601c86166004528460245260205f60445f808b5af1925060015f511483166200026c57838315161562000260573d5f823e3d81fd5b5f873b113d1516831692505b806040525050949350505050565b5f604051905090565b5f80fd5b5f80fd5b5f73ffffffffffffffffffffffffffffffffffffffff82169050919050565b5f620002b6826200028b565b9050919050565b620002c881620002aa565b8114620002d3575f80fd5b50565b5f81519050620002e681620002bd565b92915050565b5f80fd5b5f601f19601f8301169050919050565b7f4e487b71000000000000000000000000000000000000000000000000000000005f52604160045260245ffd5b6200033882620002f0565b810181811067ffffffffffffffff821117156200035a576200035962000300565b5b80604052505050565b5f6200036e6200027a565b90506200037c82826200032d565b919050565b5f67ffffffffffffffff8211156200039e576200039d62000300565b5b602082029050602081019050919050565b5f80fd5b5f620003c9620003c38462000381565b62000363565b90508083825260208201905060208402830185811115620003ef57620003ee620003af565b5b835b818110156200041c5780620004078882620002d6565b845260208401935050602081019050620003f1565b5050509392505050565b5f82601f8301126200043d576200043c620002ec565b5b81516200044f848260208601620003b3565b91505092915050565b5f806040838503121562000471576200047062000283565b5b5f6200048085828601620002d6565b925050602083015167ffffffffffffffff811115620004a457620004a362000287565b5b620004b28582860162000426565b9150509250929050565b7f4e487b71000000000000000000000000000000000000000000000000000000005f52603260045260245ffd5b620004f481620002aa565b82525050565b5f6020820190506200050f5f830184620004e9565b92915050565b608051611ccd620005355f395f81816106f50152610ae30152611ccd5ff3fe6080604052600436106100c5575f3560e01c806389a302711161007e578063af84962711610058578063af84962714610232578063d0e30db01461025a578063f2fde38b14610264578063f3fef3a31461028c576100cc565b806389a30271146101a25780638da5cb5b146101cc578063943ca3b9146101f6576100cc565b806334b35d09146100d057806335502ab5146100e65780633e6968b6146100fc57806352f295081461012657806364747283146101505780636afdd85014610178576100cc565b366100cc57005b5f80fd5b3480156100db575f80fd5b506100e46102b4565b005b3480156100f1575f80fd5b506100fa610356565b005b348015610107575f80fd5b506101106103f8565b60405161011d919061107b565b60405180910390f35b348015610131575f80fd5b5061013a61040d565b604051610147919061122a565b60405180910390f35b34801561015b575f80fd5b5061017660048036038101906101719190611307565b61053e565b005b348015610183575f80fd5b5061018c610ace565b60405161019991906113c0565b60405180910390f35b3480156101ad575f80fd5b506101b6610ae1565b6040516101c391906113c0565b60405180910390f35b3480156101d7575f80fd5b506101e0610b05565b6040516101ed91906113c0565b60405180910390f35b348015610201575f80fd5b5061021c600480360381019061021791906113d9565b610b28565b604051610229919061107b565b60405180910390f35b34801561023d575f80fd5b5061025860048036038101906102539190611426565b610b3d565b005b610262610c2a565b005b34801561026f575f80fd5b5061028a6004803603810190610285919061146d565b610c2c565b005b348015610297575f80fd5b506102b260048036038101906102ad9190611498565b610cf2565b005b5f8054906101000a900473ffffffffffffffffffffffffffffffffffffffff1673ffffffffffffffffffffffffffffffffffffffff163373ffffffffffffffffffffffffffffffffffffffff1614610338576040517f30cd747100000000000000000000000000000000000000000000000000000000815260040160405180910390fd5b5f60016005015f6101000a81548160ff021916908315150217905550565b5f8054906101000a900473ffffffffffffffffffffffffffffffffffffffff1673ffffffffffffffffffffffffffffffffffffffff163373ffffffffffffffffffffffffffffffffffffffff16146103da576040517f30cd747100000000000000000000000000000000000000000000000000000000815260040160405180910390fd5b6001806005015f6101000a81548160ff021916908315150217905550565b5f62015180426104089190611530565b905090565b61041561101a565b60016040518060c00160405290815f82015f9054906101000a900473ffffffffffffffffffffffffffffffffffffffff1673ffffffffffffffffffffffffffffffffffffffff1673ffffffffffffffffffffffffffffffffffffffff168152602001600182018054806020026020016040519081016040528092919081815260200182805480156104f857602002820191905f5260205f20905b815f9054906101000a900473ffffffffffffffffffffffffffffffffffffffff1673ffffffffffffffffffffffffffffffffffffffff16815260200190600101908083116104af575b50505050508152602001600282015481526020016003820154815260200160048201548152602001600582015f9054906101000a900460ff161515151581525050905090565b60015f015f9054906101000a900473ffffffffffffffffffffffffffffffffffffffff1673ffffffffffffffffffffffffffffffffffffffff163373ffffffffffffffffffffffffffffffffffffffff16146105c6576040517f0d9ab13f00000000000000000000000000000000000000000000000000000000815260040160405180910390fd5b60016005015f9054906101000a900460ff1661060e576040517fb25d2e8800000000000000000000000000000000000000000000000000000000815260040160405180910390fd5b61061787610e60565b61065857866040517f94403b7000000000000000000000000000000000000000000000000000000000815260040161064f91906113c0565b60405180910390fd5b61066186610e60565b6106a257856040517f94403b7000000000000000000000000000000000000000000000000000000000815260040161069991906113c0565b60405180910390fd5b6001600201548511156106f357846001600201546040517fcbe03f810000000000000000000000000000000000000000000000000000000081526004016106ea929190611560565b60405180910390fd5b7f000000000000000000000000000000000000000000000000000000000000000073ffffffffffffffffffffffffffffffffffffffff168773ffffffffffffffffffffffffffffffffffffffff16036107db575f61074f6103f8565b90505f8660075f8481526020019081526020015f205461076f9190611587565b90506001600301548111156107c257806001600301546040517f473a32260000000000000000000000000000000000000000000000000000000081526004016107b9929190611560565b60405180910390fd5b8060075f8481526020019081526020015f208190555050505b6e22d473030f116ddee9f6b43ac78ba373ffffffffffffffffffffffffffffffffffffffff166387517c45888388610e10426108179190611587565b6040518563ffffffff1660e01b815260040161083694939291906115e9565b5f604051808303815f87803b15801561084d575f80fd5b505af115801561085f573d5f803e3d5ffd5b505050505f8673ffffffffffffffffffffffffffffffffffffffff166370a08231306040518263ffffffff1660e01b815260040161089d91906113c0565b602060405180830381865afa1580156108b8573d5f803e3d5ffd5b505050506040513d601f19601f820116820180604052508101906108dc9190611640565b90505f8273ffffffffffffffffffffffffffffffffffffffff1685856040516109069291906116a7565b5f604051808303815f865af19150503d805f811461093f576040519150601f19603f3d011682016040523d82523d5f602084013e610944565b606091505b505090508061097f576040517f03a40bc400000000000000000000000000000000000000000000000000000000815260040160405180910390fd5b5f8873ffffffffffffffffffffffffffffffffffffffff166370a08231306040518263ffffffff1660e01b81526004016109b991906113c0565b602060405180830381865afa1580156109d4573d5f803e3d5ffd5b505050506040513d601f19601f820116820180604052508101906109f89190611640565b90505f8382610a0791906116bf565b905087811015610a43576040517fbb2875c300000000000000000000000000000000000000000000000000000000815260040160405180910390fd5b3373ffffffffffffffffffffffffffffffffffffffff168a73ffffffffffffffffffffffffffffffffffffffff168c73ffffffffffffffffffffffffffffffffffffffff167fee4825a7988c5519a874be79f2a84d13d02cfe5f74cad97cda2d5b55d2b13bfa8c85604051610ab9929190611560565b60405180910390a45050505050505050505050565b6e22d473030f116ddee9f6b43ac78ba381565b7f000000000000000000000000000000000000000000000000000000000000000081565b5f8054906101000a900473ffffffffffffffffffffffffffffffffffffffff1681565b6007602052805f5260405f205f915090505481565b5f8054906101000a900473ffffffffffffffffffffffffffffffffffffffff1673ffffffffffffffffffffffffffffffffffffffff163373ffffffffffffffffffffffffffffffffffffffff1614610bc1576040517f30cd747100000000000000000000000000000000000000000000000000000000815260040160405180910390fd5b8060018181610bd09190611c5c565b905050805f016020810190610be5919061146d565b73ffffffffffffffffffffffffffffffffffffffff167fcb6823e41b6ed5b26a03b5fef3d08270ca9fe972277e3c64d767c445d396f41960405160405180910390a250565b565b5f8054906101000a900473ffffffffffffffffffffffffffffffffffffffff1673ffffffffffffffffffffffffffffffffffffffff163373ffffffffffffffffffffffffffffffffffffffff1614610cb0576040517f30cd747100000000000000000000000000000000000000000000000000000000815260040160405180910390fd5b805f806101000a81548173ffffffffffffffffffffffffffffffffffffffff021916908373ffffffffffffffffffffffffffffffffffffffff16021790555050565b5f8054906101000a900473ffffffffffffffffffffffffffffffffffffffff1673ffffffffffffffffffffffffffffffffffffffff163373ffffffffffffffffffffffffffffffffffffffff1614610d76576040517f30cd747100000000000000000000000000000000000000000000000000000000815260040160405180910390fd5b5f73ffffffffffffffffffffffffffffffffffffffff168273ffffffffffffffffffffffffffffffffffffffff1603610e11575f8054906101000a900473ffffffffffffffffffffffffffffffffffffffff1673ffffffffffffffffffffffffffffffffffffffff166108fc8290811502906040515f60405180830381858888f19350505050158015610e0b573d5f803e3d5ffd5b50610e5c565b610e5b5f8054906101000a900473ffffffffffffffffffffffffffffffffffffffff16828473ffffffffffffffffffffffffffffffffffffffff16610f659092919063ffffffff16565b5b5050565b5f8060018001805480602002602001604051908101604052809291908181526020018280548015610ee357602002820191905f5260205f20905b815f9054906101000a900473ffffffffffffffffffffffffffffffffffffffff1673ffffffffffffffffffffffffffffffffffffffff1681526020019060010190808311610e9a575b505050505090505f5b8151811015610f5a578373ffffffffffffffffffffffffffffffffffffffff16828281518110610f1f57610f1e611c6a565b5b602002602001015173ffffffffffffffffffffffffffffffffffffffff1603610f4d57600192505050610f60565b8080600101915050610eec565b505f9150505b919050565b610f728383836001610fb8565b610fb357826040517f5274afe7000000000000000000000000000000000000000000000000000000008152600401610faa91906113c0565b60405180910390fd5b505050565b5f8063a9059cbb60e01b9050604051815f525f1960601c86166004528460245260205f60445f808b5af1925060015f5114831661100c578383151615611000573d5f823e3d81fd5b5f873b113d1516831692505b806040525050949350505050565b6040518060c001604052805f73ffffffffffffffffffffffffffffffffffffffff168152602001606081526020015f81526020015f81526020015f81526020015f151581525090565b5f819050919050565b61107581611063565b82525050565b5f60208201905061108e5f83018461106c565b92915050565b5f73ffffffffffffffffffffffffffffffffffffffff82169050919050565b5f6110bd82611094565b9050919050565b6110cd816110b3565b82525050565b5f81519050919050565b5f82825260208201905092915050565b5f819050602082019050919050565b5f61110783836110c4565b60208301905092915050565b5f602082019050919050565b5f611129826110d3565b61113381856110dd565b935061113e836110ed565b805f5b8381101561116e57815161115588826110fc565b975061116083611113565b925050600181019050611141565b5085935050505092915050565b61118481611063565b82525050565b5f8115159050919050565b61119e8161118a565b82525050565b5f60c083015f8301516111b95f8601826110c4565b50602083015184820360208601526111d1828261111f565b91505060408301516111e6604086018261117b565b5060608301516111f9606086018261117b565b50608083015161120c608086018261117b565b5060a083015161121f60a0860182611195565b508091505092915050565b5f6020820190508181035f83015261124281846111a4565b905092915050565b5f80fd5b5f80fd5b61125b816110b3565b8114611265575f80fd5b50565b5f8135905061127681611252565b92915050565b61128581611063565b811461128f575f80fd5b50565b5f813590506112a08161127c565b92915050565b5f80fd5b5f80fd5b5f80fd5b5f8083601f8401126112c7576112c66112a6565b5b8235905067ffffffffffffffff8111156112e4576112e36112aa565b5b602083019150836001820283011115611300576112ff6112ae565b5b9250929050565b5f805f805f805f60c0888a0312156113225761132161124a565b5b5f61132f8a828b01611268565b97505060206113408a828b01611268565b96505060406113518a828b01611292565b95505060606113628a828b01611292565b945050608088013567ffffffffffffffff8111156113835761138261124e565b5b61138f8a828b016112b2565b935093505060a06113a28a828b01611268565b91505092959891949750929550565b6113ba816110b3565b82525050565b5f6020820190506113d35f8301846113b1565b92915050565b5f602082840312156113ee576113ed61124a565b5b5f6113fb84828501611292565b91505092915050565b5f80fd5b5f60c0828403121561141d5761141c611404565b5b81905092915050565b5f6020828403121561143b5761143a61124a565b5b5f82013567ffffffffffffffff8111156114585761145761124e565b5b61146484828501611408565b91505092915050565b5f602082840312156114825761148161124a565b5b5f61148f84828501611268565b91505092915050565b5f80604083850312156114ae576114ad61124a565b5b5f6114bb85828601611268565b92505060206114cc85828601611292565b9150509250929050565b7f4e487b71000000000000000000000000000000000000000000000000000000005f52601260045260245ffd5b7f4e487b71000000000000000000000000000000000000000000000000000000005f52601160045260245ffd5b5f61153a82611063565b915061154583611063565b925082611555576115546114d6565b5b828204905092915050565b5f6040820190506115735f83018561106c565b611580602083018461106c565b9392505050565b5f61159182611063565b915061159c83611063565b92508282019050808211156115b4576115b3611503565b5b92915050565b6115c381611094565b82525050565b5f65ffffffffffff82169050919050565b6115e3816115c9565b82525050565b5f6080820190506115fc5f8301876113b1565b61160960208301866113b1565b61161660408301856115ba565b61162360608301846115da565b95945050505050565b5f8151905061163a8161127c565b92915050565b5f602082840312156116555761165461124a565b5b5f6116628482850161162c565b91505092915050565b5f81905092915050565b828183375f83830152505050565b5f61168e838561166b565b935061169b838584611675565b82840190509392505050565b5f6116b3828486611683565b91508190509392505050565b5f6116c982611063565b91506116d483611063565b92508282039050818111156116ec576116eb611503565b5b92915050565b5f81356116fe81611252565b80915050919050565b5f815f1b9050919050565b5f73ffffffffffffffffffffffffffffffffffffffff61173184611707565b9350801983169250808416831791505092915050565b5f819050919050565b5f61176a61176561176084611094565b611747565b611094565b9050919050565b5f61177b82611750565b9050919050565b5f61178c82611771565b9050919050565b5f819050919050565b6117a582611782565b6117b86117b182611793565b8354611712565b8255505050565b5f80fd5b5f80fd5b5f80fd5b5f80833560016020038436030381126117e7576117e66117bf565b5b80840192508235915067ffffffffffffffff821115611809576118086117c3565b5b602083019250602082023603831315611825576118246117c7565b5b509250929050565b7f4e487b71000000000000000000000000000000000000000000000000000000005f52604160045260245ffd5b5f81549050919050565b5f8190506001806001038301049050919050565b5f819050815f5260205f209050919050565b5f82821b905092915050565b5f600883026118c57fffffffffffffffffffffffffffffffffffffffffffffffffffffffffffffffff8261188a565b6118cf868361188a565b95508019841693508086168417925050509392505050565b5f6119016118fc6118f784611063565b611747565b611063565b9050919050565b5f819050919050565b61191a836118e7565b61192e61192682611908565b848454611896565b825550505050565b5f90565b611942611936565b61194d818484611911565b505050565b5b81811015611970576119655f8261193a565b600181019050611953565b5050565b818310156119ad5761198582611864565b61198e84611864565b61199783611878565b8181018382016119a78183611952565b50505050505b505050565b680100000000000000008211156119cc576119cb61182d565b5b6119d58161185a565b8282556119e3838284611974565b505050565b5f82905092915050565b5f819050919050565b611a0583836119e8565b67ffffffffffffffff811115611a1e57611a1d61182d565b5b611a2881836119b2565b611a31836119f2565b611a3a83611878565b600183045f5b81811015611a77575f611a52856116f2565b611a5b81611793565b8092506020870196505050808285015550600181019050611a40565b5050505050505050565b611a8c8383836119fb565b505050565b5f8135611a9d8161127c565b80915050919050565b5f7fffffffffffffffffffffffffffffffffffffffffffffffffffffffffffffffff611ad184611707565b9350801983169250808416831791505092915050565b611af0826118e7565b611b03611afc82611908565b8354611aa6565b8255505050565b611b138161118a565b8114611b1d575f80fd5b50565b5f8135611b2c81611b0a565b80915050919050565b5f60ff611b4184611707565b9350801983169250808416831791505092915050565b5f611b618261118a565b9050919050565b5f819050919050565b611b7a82611b57565b611b8d611b8682611b68565b8354611b35565b8255505050565b5f81015f830180611ba4816116f2565b9050611bb0818461179c565b5050506001810160208301611bc581856117cb565b611bd0818386611a81565b50505050600281016040830180611be681611a91565b9050611bf28184611ae7565b505050600381016060830180611c0781611a91565b9050611c138184611ae7565b505050600481016080830180611c2881611a91565b9050611c348184611ae7565b5050506005810160a0830180611c4981611b20565b9050611c558184611b71565b5050505050565b611c668282611b94565b5050565b7f4e487b71000000000000000000000000000000000000000000000000000000005f52603260045260245ffdfea26469706673582212206485e7cf31d907f8a455ddacf4886d7cc61446a3eeaf05db1632aabb6d4f923a64736f6c63430008180033","linkReferences":{}},"methodIdentifiers":{"PERMIT2()":"6afdd850","USDC()":"89a30271","dailyVolume(uint256)":"943ca3b9","deposit()":"d0e30db0","executeSwap(address,address,uint256,uint256,bytes,address)":"64747283","getCurrentDay()":"3e6968b6","getMandate()":"52f29508","owner()":"8da5cb5b","pauseMandate()":"34b35d09","resumeMandate()":"35502ab5","setMandate((address,address[],uint256,uint256,uint256,bool))":"af849627","transferOwnership(address)":"f2fde38b","withdraw(address,uint256)":"f3fef3a3"},"id":31}